:020000040800F2
:1000000080080020190300082103000823030008CA
:10001000250300082703000829030008000000004A
:100020000000000000000000000000002B0300089A
:100030002D030008000000002F0300083103000812
:1000400033030008330300083303000833030008B8
:1000500033030008330300083303000833030008A8
:100060003303000833030008330300083303000898
:100070003303000833030008330300083303000888
:100080003303000833030008330300083303000878
:100090003303000833030008330300083303000868
:1000A0003303000833030008330300083303000858
:1000B0003303000833030008330300083303000848
:1000C0003303000833030008330300083303000838
:1000D0003303000833030008330300083303000828
:1000E0003303000833030008330300083303000818
:1000F0003303000833030008330300083303000808
:1001000033030008330300083303000833030008F7
:1001100033030008330300083303000833030008E7
:1001200033030008330300083303000833030008D7
:1001300033030008330300083303000833030008C7
:1001400033030008330300083303000833030008B7
:1001500033030008330300083303000833030008A7
:100160003303000833030008330300083303000897
:1001700033030008330300083303000800000000C5
:10018000330300083303000800F002F800F098F889
:100190000AA090E8000C82448344AAF10107DA45E2
:1001A00001D100F08DF8AFF2090EBAE80F0013F09C
:1001B000010F18BFFB1A43F0010318471436000063
:1001C00034360000103A24BF78C878C1FAD85207F4
:1001D00024BF30C830C144BF04680C6070470000C1
:1001E0000023002400250026103A28BF78C1FBD840
:1001F000520728BF30C148BF0B6070476E2900F01E
:100200008181702900F0B782662903F01082652988
:1002100003F00D82672903F00A82612903F0098245
:1002200003681B0A28BF41F08001692900F02E8174
:10023000642900F02B81752900F028816F2900F0D6
:100240004582782900F08382E92900F0DF81E429E2
:1002500000F0DC81F52900F0D981EF2900F042821D
:10026000F82900F082820368DB0928BF41F0800191
:10027000632900F0A387732900F0A887E32900F021
:10028000B387F32900F0B887002070471FB503F04B
:10029000C1F900F082F801F009F804000020002103
:1002A00002F048FC401C60600020002102F02CFCA1
:1002B000E0600FBC00F02EF80FB41FBD10B510BDEC
:1002C00000F0C6FF1146FFF7E1FF01F019FA01F057
:1002D000A3F803B4FFF7F2FF03BC01F0C1F900007B
:1002E0000B49D1F800C04A685CF8043B1068184418
:1002F00042F8040B8C4528BFA1F1DC0C8A4228BFD0
:10030000A1F1DC02C1F800C04A6020F00040704753
:100310002C01002001F09AB809488047094800479D
:10032000FEE7FEE7FEE7FEE7FEE7FEE7FEE7FEE7A5
:10033000FEE7FEE704480549054A064B7047000002
:10034000AD16000889010008800200208008002006
:1003500080040020800400200FB4044910B503AAD3
:10036000029800F0E3F810BC5DF814FB00000020D8
:100370000B4910B5A1F17C020A4CC2E937123721B2
:1003800006E000EB104342F82130074B00FB03402E
:100390000B1EA1F10101F4DC10BD0120E8E7000013
:1003A000CC000020E119D666CD0D010070477047E2
:1003B000704710B500F0B2FA006810BD10B50446E1
:1003C00000F0ACFA046010BD70B5044685690068A1
:1003D000C10601D5302600E02026C00707D070BD39
:1003E000D4E9012130469047206A401C20626D1EEE
:1003F000F6D570BD70B5044685690078C00707D191
:1004000070BDD4E9012120209047206A401C206261
:100410006D1EF6D570BD09684A0501D540B270471A
:10042000C905FCD500B2704709684A0501D5C0B2BC
:100430007047C905FCD580B2704770B50C460546BB
:10044000012A05D02878800600D5EA69002302E059
:10045000012305E05B1C934202D2E05C0028F9D145
:10046000A869E618C01AA861286A184428622846B4
:10047000FFF7AAFF04E0D5E9012114F8010B90472A
:10048000B442F8D32846FFF7B5FF70BD2DE9F0411F
:100490000646002410687529314616A510D0FFF7CE
:1004A000BAFF002802DA404213A507E031688A0744
:1004B00001D512A502E0490704D511A5012401E0E8
:1004C000FFF7B2FF00210A2206F1240709E0B0FB82
:1004D000F2FCB0FBF2F302FB1C00303078541846FB
:1004E000491C0028F3D123462A463046BDE8F04196
:1004F00000F05DBA000000002D0000002B0000009D
:100500002000000011680268006A530501D50870D8
:100510000AE0D30501D5088006E0130603D5C2170B
:10052000C1E9000200E0086001207047074B70B588
:100530000D467B4400F025FE0446284600F0EAF90B
:1005400010B14FF0FF3070BD204670BDAB11000000
:100550002DE9FF5F15468A460446DFF8AC80F84473
:100560000027D8E900103E46CDE9001010E03AF827
:1005700016106A4602A800F043FE411C07D02178FD
:10058000890603D5E269391891420DD80744761CD3
:100590002078800602D5E069B84205DDAE42E6DB90
:1005A0003AF816000028E2D1A069C01BA0612046DD
:1005B000FFF70AFFD8E90010CDE90010002017E08E
:1005C0003AF818106A4602A800F01AFEB0F1FF3F90
:1005D00081460BD000250DF1080B05E0D4E901217F
:1005E0001BF8050090476D1C4D45F7D308F101003D
:1005F000B0428046E4DB206A384420622046FFF7A0
:10060000F9FEBDE8FF9F00002E3100002DE9F0410A
:100610008046D21D22F007020025D2E90002F5290A
:1006200015A614D0011E72F1000106DA0023D0EBEA
:10063000030063EB020211A608E0D8F800108B0754
:1006400001D50FA602E0490701D50EA601251146E6
:10065000002408F1240704E000F064F930323A5530
:10066000641C50EA0102F7D12B463246214640462F
:10067000BDE8F04100F09BB9000000002D00000033
:100680002B0000002000000030B4002100F1240401
:1006900008E002F00705D208303542EA4372DB0871
:1006A0006554491C52EA0305F3D10468002310A2E3
:1006B000250708D504F020040C4304D0C4690123A5
:1006C0000CA2641EC46130BC00F071B910B50446C0
:1006D00021461068FFF7A8FE02462046BDE81040FC
:1006E0000023D1E7D21D22F00701D1E90023CBE797
:1006F0000000000030000000F0B40D46018809053C
:1007000002D5214C7C4402E01F4C7C440E34002175
:1007100000F1240608E002F00F071209E75D42EA43
:1007200003721B097754491C52EA0307F3D102787C
:100730000023120704D5702D06D009B1022311340D
:100740002246F0BC00F033B901231034F8E770B54D
:1007500004460D4621461068FFF766FE024629460C
:100760002046BDE870400023C6E7D21D22F00703F3
:10077000D3E90023C0E70368126843F02003036055
:100780000823C3610023B7E7902F00002DE9F05F35
:10079000894604464FF0000ADFF874B1FB44C0F804
:1007A00020A02046E1688847002874D0252806D07C
:1007B000D4E901219047206A401C2062F1E700261D
:1007C0005F462046E16888472028054607DB312D33
:1007D00005D2781910F8200C08B10643F1E7B007EC
:1007E00001D526F00406C4F81CA00027C4F818A000
:1007F0002A2D09D0284602F07FF938B304EB870888
:10080000303DC8F8185019E059F8041B204604EB95
:1008100087029161E1688847012F054618D1E06998
:10082000002820DA26F020061DE0D8F8180000EB9A
:10083000800005EB40003038C8F818002046E16819
:100840008847054602F058F90028EED1012F0AD05A
:100850002E2D08D12046E16888477F1C0546022FCF
:1008600046F02006C4DBA069002803DA404246F0C7
:100870000106A061F00701D026F010066C2D0BD008
:10088000682D09D04C2D39D06A2D35D0742D35D036
:100890007A2D33D016E038E0E1682F4620468847AD
:1008A000B842054609D16C2F26D04FF48060E1682C
:1008B000064320468847054604E06C2F1AD04FF4C3
:1008C000807006430DB3A5F14100192802D82035E8
:1008D00046F400664A462946204626604E46FFF703
:1008E0008DFC80B101280BD0F61D26F0070000F129
:1008F000080956E74020E4E78020D8E70020D6E743
:1009000006F104094DE7284652E7206ABDE8F09F4A
:10091000202F0000007B00F08000704700487047E7
:100920003401002030B5B0F10A0271F100034FEA42
:10093000900E4EEA817EB0EB0E0061EB91014FEA22
:10094000101E4EEA017E10EB0E0041EB11114FEA32
:10095000102E4EEA016E10EB0E0041EB11214FEA12
:10096000104E4EEA014E10EB0E0041EB11414018C3
:1009700041F100014FEAD00040EA41704FEAD10155
:100980004FEA810444EA907410EB800544EB0104C3
:100990006D1944EB0404521BA3414FF0000348BF00
:1009A0000A3200D530BD401C41F1000130BD2DE9B7
:1009B000F0470D4699469246044600F12408016826
:1009C000880604D5E06921F01001216000E00120D3
:1009D000A84201DD471B00E00027A1697A1902EB5C
:1009E0000900081AA0612078C00602D42046FFF74B
:1009F000EBFC002608E0D4E901211AF80600904734
:100A0000206A401C761C20624E45F4DB2078C0062C
:100A10000AD52046FFF7D8FC06E0D4E901213020B2
:100A20009047206A401C2062381EA7F10107F4DCC1
:100A300007E0D4E9012118F805009047206A401C1E
:100A40002062281EA5F10105F3DC2046FFF7D2FC49
:100A50002078000602D50220BDE8F0870120FBE7E0
:100A60002DE9FF4F0C461E464FF0FF378BB0D2E901
:100A70000001DDF860800A908A46C1F30A5505B985
:100A80003D46002108464FF00000BAF1000F00F487
:100A9000400005DA00EB80004FF4400101EA50000D
:100AA0004FEA9059B9F1010F00DDB9460A9850EAB2
:100AB0004A000ED044F61050A5F2FF3545432F14DE
:100AC000B8F1000F1ED07542291E1EDDC9F10002CB
:100AD0001CE0B8F1010F4FF0000001D0302103E01D
:100AE000F24305E02154401CB042FBDB30460022BB
:100AF000002121540B99C1F80880C1E900200FB0F2
:100B0000BDE8F08FBD1B6D1CDEE74A4600DA694286
:100B100006A800F00FFC06AB93E8070003AB83E8E0
:100B2000070050460A9901F0B0F98DE80700A0F5DA
:100B300000501F3800900398002D0ADD42F21F017B
:100B40004A460844002303A90390684601F019FCB3
:100B500009E0A0F500504A461F38002303A903907E
:100B6000684601F023FC8DE807000004000C03D068
:100B70004FF0FF30410800E01046B8F1000F03D0FD
:100B80000022009215461EE0751E05D4FFF7CAFE2E
:100B9000303262556D1EF9D5B3460122084302D0AA
:100BA00000227F1C04E02078302801D100227F1E23
:100BB000002A099784D01DE0112D07DAFFF7B2FE55
:100BC000303262556D1C50EA0102F5D1084302D063
:100BD0000098C8B10EE00021681E05E0235C625C4D
:100BE00063542254401E491C8142F7DBAB46A81BCC
:100BF000401E0990002004F80B000B98099AC0F8D9
:100C00000880C0E9002B7AE711264FF0000857E76B
:100C10002DE9F04F88460446D21D22F0070191B01D
:100C2000D1E90001CDE90A0101F0F7FC02460B9879
:100C3000C00F01D02D2007E02068810701D52B20AF
:100C400002E0202101EAC000032A099001D0072A0E
:100C500005DB03464146204600F02CFB0BE12078E3
:100C6000800601D5E06900E00620B8F1650F8146F5
:100C700006D0B8F1660F18D0B8F1670F70D131E027
:100C80000020B9F1110F009001DB112301E009F1FF
:100C900001030AAA01A90CA8FFF7E2FEDDE90C7026
:100CA000002609F10105834647E001204B460090EC
:100CB0004FF000470AAA01A90CA8FFF7D1FEDDE911
:100CC0000DB00C995D46002610B909F101000D1810
:100CD000B9EB050003D4C0F1FF3609F10105A5EB1E
:100CE00009002BE0B9F1010F01DA4FF001090020F2
:100CF000B9F1110F0090484601DD112300E00346D1
:100D00000AAA01A90CA8FFF7ABFEDDE90C704D465D
:100D100000268346207800070AD4AB4500DA5D46FA
:100D200001A8012D04DD411911F8011C302907D05B
:100D30004F4502DA17F1040F04DA012082460FE072
:100D40006D1EEEE7002F02DCED1B3E4403E0781C35
:100D5000A84200DD7D1CB81B00F1010A4FF00047DE
:100D60002078000703D4AA4501DB4FF0FF3A0021A9
:100D7000B7F1004F0DF143088DF8431024D0022045
:100D80002B23002F01DA7F422D230A21021EA0F11E
:100D9000010000DC5FB197FBF1FC97FBF1F201FB76
:100DA0001C7C17460CF1300C08F801CDEEE7A8F1D9
:100DB000010003702188090501D5452100E0652166
:100DC000A0F1010800F8011C09980FA9A1EB080780
:100DD000FF1D00B10120411901EBEA70A1693844FF
:100DE000081A401EA0612078C00602D42046FFF7F2
:100DF000EBFA099828B1D4E901219047206A401CF8
:100E000020622078C00622D52046FFF7DDFA1EE0DA
:100E1000002E04DBB34502DD01A8805D00E0302038
:100E2000D4E901219047206A401C2062761CAAF177
:100E300001005FEA000A0AD100F038FAC0680168D0
:100E4000405CD4E901219047206A401C2062281EA2
:100E5000A5F10105DCDC07E0D4E9012118F8010B5C
:100E60009047206A401C2062381EA7F10107F3DC7E
:100E70002046FFF7BFFA032011B041E62DE9F04FFD
:100E800004460D46D21D22F0070089B0D0E9009734
:100E90004846394601F0C1FB0246F80F01D02D2328
:100EA00007E02068810701D52B2302E0202101EA19
:100EB000C0038DF820300BB1012000E00020032A90
:100EC000824601D0072A04DB2946204600F0F2F9C9
:100ED0003FE12078800601D40D2500E0E569C7F3E5
:100EE0000A560D2D49DA00214FEA175B08464FF0EC
:100EF0000000002F00F4400007DA00EB80004FF400
:100F0000400100EBD07001EA60008115012901DD8C
:100F10004FF0FF3100224FEA850CBCF1180F06D3C9
:100F20001346ACF118004FF08052C24003E04FF47A
:100F3000801323FA0CF30CF10C0CBCF1200F04D33A
:100F4000ACF1200C09FA0CF001E007FA0CF00029D2
:100F50004FF0004801DD18B90FE00ED140450CD329
:100F600019EB02095F4121B9404502D19F4329EAAB
:100F70000209BBEB175F00D0761C2088000502D564
:100F80007B48784402E07A487844193808AA30232C
:100F900002F80A30037C0AF10101002E0AF1020A6C
:100FA00053546A4602DC4FF0300101E04FF031014A
:100FB0004FF001088DF8001002D0A6F2FF3603E0D2
:100FC00059EA470100D06B4E002D02DC2178090759
:100FD00004D54FF002082E218DF80110C4460021DF
:100FE0000BE0C7F303433F01C35C491C6D1E02F8CD
:100FF0000830052908F1010801DA002DF1DC002193
:101000000CE000EB1973491C1B786D1E082902F8CF
:1010100008304FEA091908F1010801DA002DF0DC67
:1010200021688B0602D516E0A8F10108E04505DD30
:1010300002EB080313F8013C302BF5D0B8F1000F98
:1010400009DD02EB080313F8013C2E2B03D109073D
:1010500001D4A8F10108002D05DD3E2102F8081099
:101060006D1E08F10108407C002E02F8080008F10E
:10107000010804DA2D20764202F8080002E02B2055
:1010800002F808000A214FF47A70864208F101083C
:101090000BDB96FBF0F3303302F8083096FBF0F3ED
:1010A00008F1010800FB136601E0642E0CDB6420EC
:1010B00096FBF0F3303302F8083096FBF0F308F1BA
:1010C000010800FB136601E00A2E06DB96FBF1F037
:1010D000303002F8080008F1010896FBF1F001FB3E
:1010E0001060303002F80800A16908F1010808EB2F
:1010F000050202EB0A00081AA0612078C00602D49B
:101100002046FFF761F9216A08AE01EB0A00206270
:1011100004E0D4E9012116F8010B9047BAF1010A65
:10112000F7D22078C00602D52046FFF74DF96E466B
:1011300009E016F8010B3E280FD0D4E901219047B1
:10114000206A401C2062B8F10108F2D22046FFF765
:1011500051F909B00320BDE8F08F206A28442062CD
:1011600003E0D4E90121302090476D1EEBD3F8E76E
:101170005E27000002FCFFFF01694A1C026108783B
:10118000704700B58FB0CDE90131002105910549C7
:101190007944CDE9031011466846FFF7F7FA0FB01E
:1011A00000BD0000E5FFFFFF10B5436913B1AFF3C9
:1011B000008001E0FFF741F9012010BD127800F135
:1011C00024010A7000224A700122EDE711684FF0F5
:1011D000FF32E9E710B5436913B1AFF3008001E0D6
:1011E000FFF7B6F9012010BD128800F124018284B6
:1011F0000022C2840122EDE711684FF0FF32E9E7D7
:101200002DE9F04116460C46054600F047F8036804
:1012100093F80101012807D0FF2C12D8185D80B186
:1012200001202C70BDE8F081D3F807013246214639
:1012300003F20713C7182846BC46BDE8F041002357
:1012400060474FF0FF30EDE7004870473401002061
:101250007546FFF7F9FFAE4605006946534620F094
:101260000700854618B020B5FFF764F8BDE82040B8
:101270004FF000064FF000074FF000084FF0000B52
:10128000AC46ACE8C009ACE8C009ACE8C009ACE8C1
:10129000C00921F007018D467047000010B500F02D
:1012A00005F8001D10BD00BF8D18000000487047F4
:1012B000540100202DE9F0411F4604460326016831
:1012C000072A01F4006004DB08B116A505E016A5A5
:1012D00003E008B115A500E015A521F0100020607D
:1012E000A069C01EA0610FB1401EA0612046FFF79B
:1012F0006BF84FB1D4E9012138469047206A401C71
:101300002062C01C206206E0206AFAE7D4E90121CD
:1013100015F8010B9047761EF8D22046FFF76AF8C1
:10132000BDE8F0814E414E006E616E00494E4600B0
:10133000696E66002DE9F047814616468AB0354849
:1013400078440DC88DE80D0032487844801C03AC09
:101350000DC884E80D0041F69B300844372190FB0E
:10136000F1F290FBF1F5A5F1800501FB12041B3CA5
:1013700002D56442012000E00020DFF898A08046FA
:101380000027FA44AAF1BE0A0EE0E0070AD032466E
:10139000684607EB470101230AEB810101F006F8DB
:1013A0008DE8070064107F1C002CEED1194F7F449C
:1013B000AE3F19E0E80715D007EB04100DF1180A4D
:1013C00090E80E008AE80E00C068F04201D198193A
:1013D00008903246012306A903A800F0E7FF03ABFB
:1013E00083E807006D10641C002DE3D14FF001036A
:1013F00032466946B8F1000F03A802D000F0C1FFE1
:1014000001E000F0D3FFC9E90001C9F808200AB0E3
:10141000BDE8F0873024000010B50446AFF300802B
:101420002046BDE81040FEF754BF0246C91C21F01B
:101430000301D2E900031B1A8B4201D2002070473E
:101440000144C91D21F00701116070472DE9F34FD8
:1014500083B000274FF48074BA4603A821468DF864
:101460000070FFF7E2FF5FEA000801D100F082F8A8
:101470002146404600F070F8060009D04FF0010BFD
:101480004546C14616F8014B8FB15C2C16D01CE0C6
:1014900008F108004146C8F800000020C8F8040020
:1014A000D8F800402070012005B0BDE8F08F222C54
:1014B00001D0272C0FD12746BA462CE030782228BD
:1014C00007D05C2805D0272803D0BC4203D10027D1
:1014D00021E0761C04464CB12FB9202C06D0A4F193
:1014E0000900042802D905F8014BCBE74D4502D18C
:1014F000BAF1000F0FD052464946002005F8010B03
:101500006846AFF300809DF8000070B14D464FF083
:10151000000A0BF1010B002CB4D14FEA8B0103A898
:10152000FFF783FF040002D004E0A946EFE70020A4
:1015300000F020F800204246C4F8008005E012F8D0
:10154000011B11B9401C44F82020AA42F7D3002106
:1015500044F820102146A7E71CB50446CDE9000158
:1015600069461520ABBE08B100201CBD20461CBD3D
:101570007047704710B500F04BF8BDE8104000F020
:1015800042B800000000000030B44FF0013C50F8B9
:10159000042B51F8043BCCFA52F4D51A20D1FCB9F3
:1015A00050F8042B51F8043BCCFA52F4D51A17D159
:1015B000B4B950F8042B51F8043BCCFA52F4D51AC4
:1015C0000ED16CB950F8042B51F8043BCCFA52F40C
:1015D000D51A05D1002CDAD030BC4FF0000070478E
:1015E00029BAB1FA81F111F01801D1F1200084403B
:1015F000F2D1CA40CB4012F0FF0213F0FF0330BC1F
:10160000D01A70477047002801D000F029B8704701
:1016100010B5012805D0002103A000F027F8012013
:1016200010BD09A1F8E7000053494752544D454DFC
:101630003A204F7574206F662068656170206D6573
:101640006D6F7279000000003A2048656170206D6E
:10165000656D6F727920636F727275707465640066
:1016600001491820ABBEFEE72600020070B5054612
:101670000C460A2000E06D1C00F011F835B1287806
:101680000028F8D102E0641C00F009F814B12078B9
:101690000028F8D1BDE870400A20AFF3008008B5FB
:1016A00069468DF800000320ABBE08BD4EF6885099
:1016B000CEF20000016841F4700101607047000043
:1016C00084B00A460346039002910398029900EB06
:1016D0005100B0FBF1F00192009304B0704700009C
:1016E00080B584B00A4603460390029103980192A4
:1016F000009300F03DFB039804B080BD00000000A3
:1017000080B594B00020139000F0E8FA40F208028F
:10171000C2F2000240F21020C2F200004FF0020EAE
:101720000321129070461191129BCDF840E000F019
:101730003DF940F23802C2F2000240F24020C2F20B
:10174000000001210F900846119B0E9119460F9B36
:1017500000F02CF9129890ED000B40F2F811C2F253
:10176000000181ED000B90ED060B81ED020B0F9A4D
:1017700092ED000B40F20823C2F2000383ED000B50
:1017800091ED000B91ED021B93ED002B6B4683ED69
:10179000022B83ED001B53EC102B43F2B870C0F604
:1017A00000000D91FEF7D8FD40F2B011C2F2000129
:1017B000119A0C901046109B0B9119460B9A00F051
:1017C0008FF940F2E010C2F200000A900E9900F08A
:1017D000EBF968460B99016040F26020C2F200000C
:1017E0000D9A099010461099099A119B00F0A0F8E3
:1017F00040F29810C2F20000099908900846089932
:10180000109A00F0CDFA9FED180B08980A9900F095
:10181000B1F840F27820C2F2000080ED000B90EDAC
:10182000000B53EC102B43F28C71C0F600010790B3
:101830000846FEF791FD079991ED000B069000F028
:10184000FFF940F25820C2F2000080ED000B90ED4D
:10185000000B53EC102B43F2A370C0F60000FEF710
:101860007BFD0590FFE7FEE7000000000000004060
:1018700070B58EB0DDF848C09E4614460D4606464B
:101880000D900C910B920A930C9800210991CDF8C0
:101890001CE0069405950496CDF80CC00290FFE775
:1018A00009980A99884240D2FFE700200890FFE794
:1018B00008980C99884233D2FFE70D98089900EBFD
:1018C000C10090ED000B1298099A029B02FB03FCE9
:1018D00000EBCC0000EBC10090ED001B51EC100BB5
:1018E00053EC11CB0192624601F040FC41EC100B2D
:1018F0000B98019900EBC10090ED001B53EC102BED
:1019000051EC11CB0090604601F02AF941EC100B2C
:10191000009880ED000BFFE7089801300890C7E7BA
:10192000FFE7099801300990BAE70EB070BD0000DA
:101930002DE9F0418AB0DDF840C09E4614460D46C0
:1019400006460990089107920693069B0899099804
:10195000079A109FE846C8F80070CDF814E0049488
:1019600003950296CDF804C0FFF782FF0AB0BDE8E8
:10197000F081000080B58AB0B0EE401AF0EE601A37
:101980000A460346099008918DED060B09980899BF
:101990009DED060B8DED021B0192009300F02CFAD9
:1019A0008DED040B9DED040B0AB080BDB0B592B077
:1019B0009C4696460C460546119010910F920E9348
:1019C000109801464DF28372CCF297120D924FF0AF
:1019D0007C420C9200220B92CDF81CC0CDF818E08E
:1019E0000594049503900291FFE70B9811998842A2
:1019F00034D2FFE700200A90FFE70A981099884246
:101A000027D2FFE70F980B99029A514300EBC100D0
:101A10000A9900EBC10090ED000B0C9A0D9B51EC64
:101A2000100B01F0E9FD00280ED1FFE70F980B998C
:101A3000029A514300EBC1000A9900EBC10090EDFE
:101A4000000B8DED0C0BFFE7FFE70A9801300A90C1
:101A5000D3E7FFE70B9801300B90C6E70020099011
:101A6000FFE709981199884238D2FFE700200890D3
:101A7000FFE70898109988422BD2FFE70F98099941
:101A8000029A01FB02F300EBC300089B00EBC300CA
:101A900090ED000B9DED0C1B5CEC100B5EEC112B24
:101AA000019161460093734601F00EF941EC100B71
:101AB0000E980199039A01FB02F300EBC300009B0F
:101AC00000EBC30080ED000BFFE7089801300890A1
:101AD000CFE7FFE7099801300990C2E712B0B0BD27
:101AE00080B58CB013468C4686460B900A910992BD
:101AF0000A980121039008460293CDF804C0CDF85E
:101B000000E0FEF735FC00200590FFE705980B99F3
:101B1000884243D2FFE700200490FFE704980A9927
:101B2000884236D2FFE7FEF7DBFB46F2676EC6F26D
:101B3000666E50FB0EFE4FEAAE0101EBDE7101EB6B
:101B40008101A0EB410001F082FA41EC100B8DED18
:101B5000060B9DED060B9FED121B53EC112B51EC68
:101B6000100B01F0B1F841EC100B8DED060B9DED63
:101B7000060B09980599039A514300EBC10004999B
:101B800000EBC10080ED000BFFE7049801300490EA
:101B9000C4E7FFE7059801300590B7E70CB080BDBA
:101BA000000000000000244080B588B00A460346CB
:101BB00007900691012002920193FEF7D9FB0020C5
:101BC0000390FFE703980699884231D2FFE7FEF7BA
:101BD00087FB46F2676EC6F2666E50FB0EFE4FEA5A
:101BE000AE0101EBDE7101EB8101A0EB410001F0E0
:101BF0002EFA41EC100B8DED040B9DED040B9FEDC7
:101C00000E1B53EC112B51EC100B01F05DF841EC65
:101C1000100B8DED040B9DED040B0798039900EB61
:101C2000C10080ED000BFFE7039801300390C9E786
:101C300008B080BD00BF00BF0000000000002440CD
:101C400080B586B0B0EE401AF0EE601A8DED040B50
:101C50009DED040B9FED122B51EC120B53EC102B4E
:101C60008DED021B01F0C2FB41EC100B00F0F0FC0B
:101C700051EC100B9FED0C0B53EC102B01920093C9
:101C800000F06EFF41EC100B53EC102B0198009903
:101C900001F01AF841EC100B06B080BD00BF00BF88
:101CA0000000000000000080000000000000F03F85
:101CB00080B586B013468C46864605900491039203
:101CC000049803990293CDF804C0CDF800E0FFF723
:101CD000F7FC0599886006B080BD000080B582B031
:101CE00043F63000C4F20200016841F001010160D6
:101CF0000020C4F20200016841F42011016041F2A9
:101D00000C00C4F20100016821F48051016041F22D
:101D10001001C4F201010A6822F440520A60242131
:101D2000C4F202010A6842F4EE620A6043F644011A
:101D3000C4F202010A6842F010020A6041F2000196
:101D4000C4F2010142F20042C0F2F4024FF4165311
:101D50000190084611461A46FFF7AAFF0C20019988
:101D60000860086840F40050086002B080BD0000C0
:101D700082B0014601900091FFE741F20000C4F2F9
:101D80000100006810F0800F01D1FFE7F5E79DF832
:101D9000040041F20401C4F20101086002B070477E
:101DA00080B588B013468C46864607900691ADF8FC
:101DB0001620002004900393CDF808C0CDF804E06D
:101DC000FFE70498BDF81610884213DAFFE707987A
:101DD000049900EBC10090ED000BFFF731FF06986E
:101DE000049900EBC10080ED000BFFE7049801307F
:101DF0000490E6E708B080BD80B58CB0B0EE401A24
:101E0000F0EE601A0A4603460B900A918DED080B1E
:101E1000002005908DED021B01920093FFE70598CD
:101E200001F015F941EC100B089A099B51EC100BCD
:101E300001F0DBFB002824D1FFE70B98059900EBAC
:101E4000C10090ED000B0A9800EBC10090ED001B63
:101E500051EC100B53EC112B01F088F941EC100BF5
:101E60009DED061B53EC102B51EC110B00F078FE8E
:101E700041EC100B8DED060BFFE705980130059046
:101E8000CDE79DED060B0CB080BD5FEA400C08BFAE
:101E900091F0000F4FEA8C234FEAC12243EA5151DF
:101EA0004FEA1C5018BF00F5F0404FEA300018BF51
:101EB00041F000415FEA6C5C00F02980BCF1FF3F1B
:101EC00008BF40F080407047130C06BF12044FF06B
:101ED000100C4FF0000C130E04BF12020CF1080C92
:101EE000130F04BF12010CF1040C930F04BF9200F6
:101EF0000CF1020CD30F04BF52000CF1010C11467F
:101F00004FF00002A0F11F00A0EB0C00704711F091
:101F1000004F08BF704731F000413FF4D5AF0B0CC4
:101F200006BF09044FF0100C4FF0000C0B0E04BF5D
:101F300009020CF1080C0B0F04BF09010CF1040C91
:101F40008B0F04BF89000CF1020CCB0F04BF4900BA
:101F50000CF1010CCCF1200322FA03F341EA030156
:101F600002FA0CF2A0EB0C0000F10100704723F024
:101F70007F4720F07F4C80EA030000F00040ACEB8C
:101F8000070303F57C5303F1FF032DE9804909B4EE
:101F90004FEA144324EA03484FEA154B25EA0B4E57
:101FA0000FF2042606EB13273E7803FB0667C7F5FE
:101FB000000707FB06F64FEAD64606F102064FEA8F
:101FC000543707FB066CCCF1005C4FEA1C472CEA47
:101FD000074C0CFB06F507FB06F404EB15464FEA2D
:101FE000961649085FEA320234BF00204FF00040E5
:101FF0004FEAD13706FB07FC4FEA1C4C0CFB0BF7F2
:10200000D21B03FB0CF761EB07010CFB0EF7B0EBE7
:10201000074072EB17420CFB08F734BFA2EB0742F4
:10202000B2EB074261EB17414FEA0C444FEA9107CC
:1020300006FB07FC4FEA1C4C0CFB0BF7B0EBC74050
:1020400072EB573203FB0CF734BFA2EBC742B2EB83
:10205000C74261EB57310CFB0EF7B0EBC70072EBD8
:1020600057720CFB08F734BFA2EBC702B2EBC702F2
:1020700061EB57714FEA816141EA92114FEA826246
:1020800042EA90124FEA806004EBCC04039F4FEACF
:10209000D13706FB07FC4FEA1C4C0CFB0BF7D21B9D
:1020A00003FB0CF761EB07010CFB0EF7B0EB0740ED
:1020B00072EB17420CFB08F734BFA2EB0742B2EBFE
:1020C000074261EB17414FEA8C5504EB9C244FEA21
:1020D000910706FB07FC4FEA1C4C0CFB0BF7B0EB1F
:1020E000C74072EB573203FB0CF734BFA2EBC74279
:1020F000B2EBC74261EB57310CFB0EF7B0EBC700F8
:1021000072EB57720CFB08F734BFA2EBC702B2EBBD
:10211000C70261EB57714FEA816141EA92114FEAC0
:10212000826242EA90124FEA806015EB4C2544F13E
:1021300000044FEAD13706FB07FC4FEA1C4C0CFBAE
:102140000BF7D21B03FB0CF761EB07010CFB0EF73F
:10215000B0EB074072EB17420CFB08F734BFA2EB61
:102160000742B2EB074261EB17414FEA813141EA86
:1021700092414FEA823242EA90424FEA80304FEA7F
:102180000C7615EB1C1544F1000448EA03434EEAB3
:102190000B484FF0000EB2EB080C71EB030724BFA5
:1021A000624639464EEB0E0E4FF0000B00185241BE
:1021B00049414BEB0B0BB2EB080C71EB03077BF1C6
:1021C000000B24BF624639464EEB0E0E4FF0000B5B
:1021D0000018524149414BEB0B0BB2EB080C71EB71
:1021E00003077BF1000B24BF624639464EEB0E0E0F
:1021F00051EA020718BF46F0010616EB0E7655F1BC
:10220000000254F1000103D5BDE88901BDE8008852
:10221000BDE88901BDE80048B619524141EB010112
:10222000A3F10103704780807F7E7D7C7B7A797883
:10223000777676757473727171706F6E6E6D6C6C8B
:102240006B6A6A696868676666656464636362612D
:102250006160605F5F5E5E5D5D5C5C5B5B5A5A59AE
:10226000595858575756565555555454535352521A
:102270005251515050504F4F4F4E4E4D4D4D4C4C72
:102280004C4B4B4B4A4A4A494949484848474747BB
:1022900047464646454545444444444343434342F8
:1022A0004242424141419C46002B30D477002BD022
:1022B0004FEA37071CB503B44FF010004FF0100180
:1022C000BAF1000F06D0BCF1000FDCBF40F00800EF
:1022D00040F008014FF000000FBCBDE810400BF1CA
:1022E000010BBBF1010F08BF5FEA170722BF12F114
:1022F000010211F101014FF0004143F1000300F030
:10230000004043EA00007047F9D35708D0E746EA97
:1023100006464FEA164613F1400F1FDD13F1200F5A
:10232000DFBF16430A46002120335B42BED0C3F113
:10233000200746EA06464FEA164602FA07F746EA3B
:10234000070622FA03F2C3F1200701FA07F742EA6F
:10235000070221FA03F14FF00003A7E746EA02065D
:1023600046EA06464FEA164646EA0106BCBF46EA7A
:102370000646360C4FF000034FF000024FF000010C
:1023800094E72DE9804C70B49A46934691E8380062
:1023900007C831EA400C48BF34EA430C03D5FFF7C5
:1023A000E6FDFFF780FFF0BCBDE8008C2DE9804C16
:1023B00070B49A46934691E8380007C810F0804FF1
:1023C00008BF13F0804F03D100F005F8FFF76BFF53
:1023D000F0BCBDE8008C20F07F4723F07F4C80EA02
:1023E000030000F0004007EB0C03A3F57C53A3F1BE
:1023F000FE0392F0000F00F0B38095F0000F00F0A4
:1024000077802DE901494FEA114021EA00484FEA5F
:10241000144624EA064700FB06FC08FB06F607FB09
:1024200008F818EB06484CEB164C00FB07F718EBC6
:1024300007484CEB17404FEA124B22EA0B4E4FEA8B
:10244000154625EA06470BFB06FC0EFB06F607FBC6
:102450000EFE1EEB064E4CEB164C0BFB07F71EEB6D
:10246000074E4CEB174B18EB0B0840F1000018EB34
:102470000E0B58EB000840F100008F1A4FF00001DE
:102480004FF000063CBFC943661B14BFB5EB040CFC
:1024900000213CBFC943F61B4FEA174427EA044515
:1024A0004FEA1C472CEA074C04FB076205FB07F7C1
:1024B0000CFB05F616EB074642EB174204FB0CFC3F
:1024C00016EB0C4642EB1C421BEB060658EB0202D5
:1024D00041414EEA8E0E46EA9E0601D5BDE80189CD
:1024E000B619524141EB0101A3F10103BDE8018995
:1024F0004FEA144524EA05464FEA114721EA074C02
:1025000005FB07F406FB07F70CFB06F111EB07418F
:1025100044EB174405FB0CFC11EB0C4144EB1C4451
:102520004FEA124722EA074C05FB07F206FB07F7C2
:102530000CFB06F616EB074642EB174205FB0CFCBC
:1025400016EB0C4642EB1C456A1854F1000148BFDB
:102550007047B619524141EB0101A3F101037047E5
:1025600095F0000F37D04FEA114221EA02464FEAB8
:10257000144724EA074C02FB07F106FB07F70CFBA4
:1025800006F414EB074441EB174102FB0CFC14EB7F
:102590000C4441EB1C414FEA154725EA074C02FB6E
:1025A00007F506FB07F70CFB06F616EB074645EBAF
:1025B000174502FB0CFC16EB0C4645EB1C421219AE
:1025C00051F1000148BF7047B619524141EB01017A
:1025D000A3F1010370474FEA144524EA05464FEA88
:1025E000114721EA074C05FB07F106FB07F70CFB37
:1025F00006F212EB074241EB174105FB0CFC12EB14
:102600000C4251EB1C414FF0000648BF7047921836
:1026100041EB0101A3F10103704703B401984100AC
:10262000009850EAC12018BF04204A0D18BF40F09E
:10263000010040F2FF72B2EB515F08BF40F00200B0
:10264000012808BF052002B070470000000000000C
:1026500070B52DED020B2DED0A8B82B00D98C40FD5
:1026600020F00045AE48854248D3AE48854219D394
:102670000C99C5F31300084309D09DED0C0B02B073
:10268000BDEC0A8B02B0BDE8704000F009BA002C26
:1026900014BF9FEDA50B9DED0C0B02B0BDEC0A8B9A
:1026A00002B070BD9FEDA20B53EC102B9DED0C0BF7
:1026B00051EC100B00F058FE0AD20220FDF77EFE0E
:1026C00002B0BDEC0A8B02B0BDE8704000F0F4B976
:1026D0009FED990B53EC102B9DED0C0B51EC100B57
:1026E00000F008FD0AD20220FDF768FE02B0BDEC42
:1026F0000A8B02B0BDE8704000F0EEB990489FED43
:1027000092BBA8425CD29248854219D29148784443
:1027100000EBC40090ED000B53EC102B9DED0C0B67
:1027200051EC100B00F062FE41EC1A0B8A48784421
:1027300000EBC40090ED009BC4F10100041B36E0E7
:102740009FED870B53EC102B9DED0C0B51EC100BF8
:1027500000F00CFD41EC100B8348784400EBC40002
:1027600090ED001B51EC100B53EC112B00F0F8F91D
:1027700000F03EFC044600F06AFC41EC180B9FEDB3
:102780007C0B53EC102B00F0F1FC9DED0C1B53EC7B
:10279000112B00F01FFE41EC1A0B9FED770B51EC53
:1027A000180B53EC102B00F0E1FC41EC190B51EC31
:1027B0001A0B53EC192B00F019FECDE90C011BE0AC
:1027C0006F48854217D29FED700B53EC102B9DED97
:1027D0000C0B51EC100B00F0C3F953EC1B2B00F069
:1027E000C3FD08D29DED0C0B53EC1B2B51EC100BD1
:1027F00000F0B6F96EE000249DED0C0B53EC102BAD
:1028000051EC100B00F0B2FC41EC180B60480521B4
:10281000B0EE480AF0EE680A784400F0C5F853ECD0
:10282000182B51EC100B00F0A1FC9DED0C1B53EC90
:10283000112B00F0CFFD41EC180B9FED570B5CB353
:1028400053EC182B51EC100B00F0D0FD9DED0C0B50
:1028500041EC1C0B53EC182B51EC100B00F086FCD8
:1028600053EC1C2B00F030FA53EC192B00F0B2FDA6
:1028700053EC1A2B00F0BAFD53EC1B2B00F0AAFD11
:10288000CDE900016FF47F70844226DB01EB045038
:1028900001909DED000B00E753EC102B51EC180B51
:1028A00000F0A4FD9DED0C0B41EC190B53EC182B23
:1028B00051EC100B00F05AFC53EC192B00F004FA09
:1028C0009DED0C1B53EC112B00F090FD53EC1B2BDA
:1028D00000F080FD41EC100BDFE608464FF07A5126
:1028E00001EB04519FED2E0B084453EC102B01908B
:1028F0009DED000B51EC100B00F038FC0D4645EC43
:10290000100B044651EC100BFFF787FE042808BF9C
:1029100000F0E2F845EC104BBFE6000000000000BC
:10292000422E86400000F07F000000000000000002
:10293000EF39FAFE422E864051302DD5104987C01E
:10294000422ED63F00000000000000000000F03FD3
:10295000B2A2F03F360F0000260F0000000000007A
:10296000FE822B654715F73FDA0E000000000000DD
:102970000000E0FE422EE63F763C7935EF39EA3D35
:102980000000303E000000009C7500883CE4377E6B
:102990004C0E00000000000000000000000000409D
:1029A000000000000000700170B504462DED028BA0
:1029B0004D1E00EBC500B0EE408AF0EE608A90ED4F
:1029C000000B35F0060017D053EC182B51EC100B10
:1029D00000F0CCFB41EC100B6D1E04EBC50090ED3C
:1029E000001B51EC100B53EC112B00F0B9F841EC2B
:1029F000100B35F00600E7D1022D36D0042D1CD087
:102A0000062D1CBFBDEC028B70BD53EC182B51EC96
:102A1000100B00F0ABFB94ED0A1B53EC112B00F0F4
:102A20009FF853EC182B00F0A1FB94ED081B53EC1E
:102A3000112B00F095F841EC100B53EC182B51ECD6
:102A4000100B00F093FB94ED061B53EC112B00F0E0
:102A500087F853EC182B00F089FB94ED040B53EC32
:102A6000102B00F07DF841EC100B53EC182B51ECBF
:102A7000100B00F07BFB94ED021B53EC112B00F0CC
:102A80006FF853EC182B00F071FB94ED001B53EC26
:102A9000112B00F065F8BDEC028B41EC100B70BD02
:102AA00010B553EC102B51EC100B00F059F841EC21
:102AB000100B10BD000000009FED050B10B553EC8E
:102AC000102B51EC100B00F051FB41EC100B10BD22
:102AD00000000000000000709FED050B10B553ECE6
:102AE000102B51EC100B00F041FB41EC100B10BD12
:102AF000000000000000001030380A2801D2012038
:102B0000704700207047000010B500290AD00878EF
:102B1000002807D005487844FEF736FD002801D08C
:102B2000002010BD0248784410BD0000DA0C0000FF
:102B3000D20C000010B500290AD00878002807D070
:102B400005487844FEF720FD002801D0002010BD84
:102B50000248784410BD0000CA0C0000C20C0000FE
:102B600010B591EA030F48BF83F0004300F146849B
:102B7000841A71EB030C05D2121943EB0C03001BF2
:102B800061EB0C014FEA1154A4EB135CDFF81CE17C
:102B90001EEA430F18BF9EEA445F73D021EA045136
:102BA00023EA0E0343F48013DCF1200E32D322FA21
:102BB0000CFE10EB0E0023FA0CFE41EB0E01CCF1E3
:102BC000200E03FA0EFE10EB0E00CCF1200E51F198
:102BD0000001B1F5801F32D201EB045112FA0EF25E
:102BE000BDE8104058BF7047401C38BF5FEA420242
:102BF00018BF7047002814BF20F0010041F1000108
:102C00004FEA410313F5001F38BF7047A1F1C041DF
:102C100000F0A4BB012A43EB0302ACF1200CDCF171
:102C20001F0E32BF4FF0000E23FA0CF310EB03001F
:102C300041EB0451B4EB115FD0D0A1EB045101F58D
:102C40008011490801EB04515FEA30000ED350F1C6
:102C5000000038BF12FA0EFE08D1BDE81040C9E7E7
:102C6000401C38BF5FEA4202CAD1C3E7BDE810404A
:102C70004FEA410313F5001F38BF7047A1F1C0416F
:102C800000F06CBB9EEA445F08D011EA5E0FBDE81D
:102C9000104004BF01F0004100207047BDE8104023
:102CA00070B500F00DFB00BF64FBBE3E0000E0FF0E
:102CB000491058BFC1F140415B1058BFC3F14043B8
:102CC0008B42EFF3008070472DE9C04130B4DFF84C
:102CD000A0C23CEA111418BF3CEA131400F0EC80C7
:102CE0001CEA111481EA030544EAD57418BF1CEAF2
:102CF000131500F0C780A4EB050404F17F7404F5FC
:102D000000344FF0004545EAC12145EAC32341EABA
:102D1000505143EA52534FEAC0204FEAC22299422F
:102D200008BF904200F09C804FEA13650FF24016F6
:102D3000765D4FEA134506FB05F7C7F1807706FB82
:102D400007F74FEAD737A7FB03687642A7FB06CE03
:102D5000C8F5803838BFA8F1010807FB08E6A6FBD4
:102D6000028C4FF0000EE6FB03CEDCF1000CCEF13E
:102D7000004E38BFAEF1010EA6FB0C584FF0000715
:102D8000E6FB0E87A1FB08C6A0FB07CE16EB0E06DE
:102D90004FF0000545F10005E1FB076515F1E04E38
:102DA0007EBFA4F580345FEA46066D4116F18007C8
:102DB00045F100054FEA172747EA05674FEA152551
:102DC0004FEA0666A6F1DE46B6F1805F1FD93846A7
:102DD00005EBC47124F0010C01EB0C11BCF1FE6F8A
:102DE00002D8F0BCBDE8008124425CBF01F5801E22
:102DF0009EEAC47F02D4F0BCBDE80081244238D4EE
:102E0000A1F1C041F0BCBDE8004100F0A7BA4FEA13
:102E1000D02040EA41504FEAD1214FEAD22242EA83
:102E200043524FEAD323A7FB028607FB036605FB49
:102E300002661EEA0E0F58BFA6EB0056B6EB005610
:102E40004FEA520E4EEAC37E18EB0E0E56EB530EAF
:102E5000BDD518EB02085E417F1C55F10005B6E7B1
:102E60004FF480154FF000074FF000064FF00008B8
:102E7000ADE701F1C04101F000414FF00000F0BCAE
:102E8000BDE800810CEA131511EA0C1F00D00CE01C
:102E900013EA0C1F00F025804FF0000081EA0301C7
:102EA00001F00041F0BCBDE80081F0BCBDE800418C
:102EB00081EA030100F052BAF0BCBDE8004170B5F0
:102EC00000F0FEF9097EFC3E00F007B84FF000006C
:102ED00081EA030101F00041704781EA030100F03B
:102EE0003DBAF0BCBDE8004122494FF000007047F8
:102EF000FFFDFBF9F7F5F4F2F0EEEDEBE9E8E6E4BF
:102F0000E3E1E0DEDDDBDAD8D7D5D4D3D1D0CFCD45
:102F1000CCCBCAC8C7C6C5C4C2C1C0BFBEBDBCBB7E
:102F2000BAB9B8B7B6B5B4B3B2B1B0AFAEADACAB79
:102F3000AAA9A8A8A7A6A5A4A3A3A2A1A09F9F9E53
:102F40009D9C9C9B9A999998979796959594939305
:102F5000929191908F8F8E8E8D8C8C8B8B8A89899C
:102F6000888887878685858484838382828181801F
:102F70000000FF070000F87F51EA030C17D41CF58E
:102F8000801F58BFBCF5801F00F10680994218BF12
:102F9000704708BF9042704707D711F5801F58BF90
:102FA00013F5801F19D499427047894270471CF568
:102FB000801F08D5BCF5801FF7D58B4218BF70471E
:102FC00008BF824270474FF4001C1CEB410F38BF12
:102FD0001CEB430F01D28B42704770B500F070F9C3
:102FE000922449004FF000514FF08053FFF760BE2C
:102FF0004FEA41034FEA5353A3F58063D3F11E0315
:10300000C8BFD3F1210C0CDD4FF0004242EAC122CF
:1030100042EA505232FA03FC8CEAE17CACEBE170FC
:103020007047102BC4BF0020704703F5787CBCF1BB
:10303000FF3F04D06FF0004282EA2100704770B574
:1030400000F03EF94992248000207047F2E710F02A
:10305000004248BF4042B0FA80F310FA03F10AD0B0
:10306000C3F11D0303F5806302EB03524FEA4150A5
:1030700002EBD12170474FF00000704751EA030C7A
:1030800017D41CF5801F58BFBCF5801F00F10680C7
:10309000994218BF704708BF9042704707D711F593
:1030A000801F58BF13F5801F19D499427047894279
:1030B00070471CF5801F08D5BCF5801FF7D58B42E3
:1030C00018BF704708BF824270474FF4001C1CEBCA
:1030D000410F38BF1CEB430F01D28B42704770B5D4
:1030E00000F0EEF8922449004FF080514FF0005369
:1030F000FFF7DEBD51EA030C17D41CF5801F58BF43
:10310000BCF5801F00F10680994218BF704708BFC8
:103110009042704707D711F5801F58BF13F5801FE5
:1031200019D499427047894270471CF5801F08D511
:10313000BCF5801FF7D58B4218BF704708BF82428D
:1031400070474FF4001C1CEB410F38BF1CEB430FC2
:1031500001D28B42704770B500F0B2F8922449005A
:103160004FF000514FF08053FFF7A2BD70B5DFF86C
:1031700048C11CEA111E1EBF1CEA13159EEA0C0F63
:1031800095EA0C0F00F06F8081EA03044EEAD47ECA
:10319000AE4421EA4C1123EA4C1341F4801143F46C
:1031A0008013AEF17F7EA1FB024CA0FB03653619B4
:1031B00055EB0C05A1FB034C4CF10003A0FB021CDA
:1031C00016EB0C06654153F10003094218BF46F0A7
:1031D000010613F4007F0BD14FEA03314FEA0530AB
:1031E00041EA155140EA165034036FF003020AE039
:1031F0004FEAC3214FEAC52041EA555140EA5650F3
:10320000F4026FF0020202EB2E4201EB025585EA56
:10321000CE710AD05FEA440C18BF24F0004450F18C
:10322000000041F1000120EAD47040F2FE7C6245CA
:1032300000D270BDA84214BF4FF080444FF040440C
:10324000002E08BF0024BEF1806FA8BFA1F1C041CD
:10325000BDE8704080F2828001F1C04101F0004180
:103260004FF0000070470CEA13159EEA0C0F18BFD0
:1032700095EA0C0F06D081EA030E4FF000000EF025
:10328000004170BD00F01CF88900013E00F007B855
:1032900000F009B84FEA430C5FEA5C5C08D081EAB1
:1032A000030100F05BB84FEA410C5FEA5C5CF6D1C9
:1032B00002494FF0000070470000FF070000F87F50
:1032C0000EF1020E2EF0030E5EF8046B364205D4AA
:1032D000012A43EB030515F5001F12D8012841EB25
:1032E000010C1CF5001F0CD80ED14FEAD17C0CEB61
:1032F0004C0C0CF1020C15F5001F08BF4CEBD37CF5
:1033000004E04FF0080C01E04FEAD37C0CEB4C05D5
:1033100026FA05F606F00706B6F1040C06D20EEB07
:10332000860CBDE870404CF0010C6047DFE80CF003
:10333000090B02024FF00041A1F500214FF00000FF
:1033400070BD19461046012851EB010418BFD4F591
:10335000001484BF002001F0004170BD0808A0F5F2
:1033600000114FEA3101704753EA010C17D41CF5E4
:10337000801F58BFBCF5801F00F106808B4218BF2C
:10338000704708BF8242704707D713F5801F58BFA8
:1033900011F5801F19D48B4270479B4270471CF572
:1033A000801F08D5BCF5801FF7D5994218BF70471C
:1033B00008BF904270474FF4001C1CEB430F38BF0E
:1033C0001CEB410F01D2994270470FB40CBC03BCF7
:1033D000FFF7C1BE10B591EA030F81F000413FF540
:1033E000C7AB83F0004300F009B8000010B591EAC4
:1033F000030F48BF83F000433FF5BAAB841A71EB6B
:10340000030C07D28CF0004C121943EB0C03001B89
:1034100061EB0C014FEA1154A4EB135CDFF89CE163
:103420001EEA430F18BF9EEA445F00F0B08021EA15
:10343000045123EA6E035242C3EB6E0338BF5B1E96
:10344000DCF1200E25D322FA0CFE10EB0E0043FA1D
:103450000CFE41EB0E01CCF1200E03FA0EFE10EB38
:103460000E00CCF1200E51F1000129D401EB0451E2
:1034700012FA0EF2BDE8104058BF7047401C1CBF46
:10348000B2F1004F704700280CBF491C20F001002A
:10349000704712EB020E43EB030218BF4FF0010E10
:1034A0004EEA4202ACF1200CDCF11E0E54D943FA74
:1034B0000CFE10EB0E00CCF11E0E51F1FF31D5D5F4
:1034C0000EF1010E12FA0EFE404141EB010101EB3B
:1034D000445C5FEA5C5C10D901EB045110EBDE70D8
:1034E00038BFBEF1004FBDE8104018BF704700283C
:1034F0000CBF491C20F00100704730D24FEAD42C99
:1035000024F4006411F500111BD0B1FA81F20B3ADA
:10351000A41AA41ED2F12003914030FA03F31943F8
:10352000904001EBCC7101EB0451002CBDE8104040
:10353000A8BF704701F1C04101F000414FF0000009
:103540007047B0FA80F310FA03F100D110BDE41A0D
:10355000173C4805C90AE4E701EB045110BD4910C6
:103560004FEA300001EB0451BDE8104002E04FF09B
:10357000000170474A0008BF0042F8D0B2F5001FB2
:1035800028BF704701F000414FF0000070479EEAED
:10359000445F07D011EA5E0FBDE8104004BF002170
:1035A00000207047BDE8104070B5FFF789FE00BFEE
:1035B00040DFF63E104683F0004170470000E0FF18
:1035C00010B5FFF7D9FC0CBF0120002010BD10B5CD
:1035D000FFF7D2FC14BF0120002010BD10B5FFF78B
:1035E0004DFD8CBF0120002010BD10B5FFF746FD3A
:1035F0002CBF0120002010BD10B5FFF77BFD94BF4C
:103600000120002010BD10B5FFF774FD34BF01206C
:10361000002010BDF1EE100A4FF6FF71C0F2C0316C
:1036200020EA010040F04070E1EE100A7047FDF71B
:10363000EFBAFDF723BC0000000000000000E03FEF
:10364000000000000000E0BF0000E0FE422EE63F68
:103650000000E0FE422EE6BF763C7935EF39EA3DC8
:10366000763C7935EF39EABD3E5555555555C53F40
:1036700093BDBE166CC166BF2CDE25AF6A56113FE6
:10368000F16BD2C541BDBBBED0A4BE726937663EE8
:10369000000000000000000030313233343536378E
:1036A0003839414243444546403058003031323386
:1036B0003435363738396162636465664030780086
:1036C00004000008000000000000000200010000EB
:1036D00010303132333435363738396162636465DE
:1036E00066787000303132333435363738394142FC
:1036F000434445465850000002400000000000A02E
:103700000000000005400000000000C800000000AC
:103710000C4000000000409C000000001940000028
:103720000020BCBE0000000034400000BFC91B8E5A
:1037300000000004B5400000504BCFD06607E2CF38
:10374000010000006C4100003E8251AADFEEA73468
:1037500001000000D9420000DCB5A0E23A301F971A
:10376000FFFFFFFFB4450000FD25A0C8E9A3C14F3E
:10377000FFFFFFFFFF3F000000000080000000008F
:10378000FF3F000000000080000000007A3220654A
:1037900067312076616C7565203A2025662E2E2EC5
:1037A0000D0A00796861742076616C7565203A2095
:1037B00025662E2E2E0D0A002E2E2E25662E2E2E3E
:1037C0002E25662E2E2E2E25662E2E2E0000000073
:1037D000203900080000002050000000C40100084B
:1037E000703900085000002030080000E001000897
:1037F0001C00000043000000F8FFFFFF0C00000069
:103800000E0000000F0000002E000000100100005C
:1038100043000000F8FFFFFF0040404040404040B0
:103820004040414141414140404040404040404093
:103830004040404040404040400502020202020237
:103840000202020202020202022020202020202086
:10385000202020020202020202029090909090909A
:103860001010101010101010101010101010101058
:1038700010101010020202020202888888888888CC
:1038800008080808080808080808080808080808B8
:1038900008080808020202024000000000000000C0
:1038A0000000000000000000000000000000000018
:1038B0000000000000000000000000000000000008
:1038C00000000000000000000000000000000000F8
:1038D00000000000000000000000000000000000E8
:1038E00000000000000000000000000000000000D8
:1038F00000000000000000000000000000000000C8
:1039000000000000000000000000000000000000B7
:1039100000000000000000000000000000000000A7
:103920000100000000000000000000000000004056
:103930000000000000001440000000000000F03F04
:1039400000000000000020400000000000001440C3
:10395000000000000000204000000000000069405E
:1039600000000000008056400000000000C06740DA
:0400000508000319D3
:00000001FF
